:020000040800F2
:1000000000000220A9C10008A5010008A9010008FC
:10001000AD010008B1010008B501000800000000B2
:10002000000000000000000000000000B90100080E
:10003000BD01000800000000C1010008C501000862
:10004000F5C10008F5C10008F5C10008F5C10008B8
:10005000F5C10008F5C10008F5C10008F5C10008A8
:10006000F5C10008F5C10008F5C10008F5C1000898
:10007000F5C10008F5C10008F5C10008F5C1000888
:10008000F5C10008F5C10008F5C10008F5C1000878
:10009000F5C10008F5C10008F5C10008F5C1000868
:1000A000F5C10008F5C10008F5C10008F5C1000858
:1000B000F5C10008F5C10008F5C10008F5C1000848
:1000C000F5C10008F5C10008F5C10008F5C1000838
:1000D000F5C10008F5C10008F5C10008F5C1000828
:1000E000F5C10008F5C10008F5C10008F5C1000818
:1000F000F5C10008F5C10008F5C10008F5C1000808
:10010000F5C10008F5C10008F5C10008F5C10008F7
:10011000F5C10008F5C10008F5C10008F5C10008E7
:10012000F5C10008F5C10008F5C10008F5C10008D7
:10013000F5C10008F5C10008F5C10008F5C10008C7
:10014000F5C10008F5C10008F5C10008F5C10008B7
:10015000F5C10008F5C10008F5C10008F5C10008A7
:10016000F5C10008F5C10008F5C10008F5C1000897
:10017000F5C10008F5C10008F5C10008F5C1000887
:08018000F5C10008F5C10008FB
:1001880082B00190019B5A1E0192002BFAD102B055
:10019800704700BF704700BFFEE700BF704700BF51
:1001A800FEE700BFFEE700BFFEE700BFFEE700BFB7
:1001B800704700BF704700BF704700BF704700BF5F
:1001C800374B1968002241F0010119609A601968DB
:1001D80021F0847121F4803119603249596019681D
:1001E80082B021F480211960DA60009201921A68C5
:1001F80042F480321A601A4603E0009BB3F5A06F00
:1002080009D0136803F400330193009B0133009372
:10021800019B002BF1D0224B1B6813F400330AD04A
:1002280001230193019B012B09D01F4B4FF0006262
:100238009A6002B070470193019B012BF5D1184BCE
:100248001A4A196C41F080511964116841F48041CF
:1002580011609A689A609A6842F400429A609A68B3
:1002680042F4A0529A60124A5A601A6842F08072A8
:100278001A6019460B680A4A9B01FBD50D4B40F2E0
:1002880005611960936823F003039360936843F052
:1002980002039360936803F00C03082BFAD1C4E7B8
:1002A800003802401030002400ED00E000700040EB
:1002B80008544007003C0240164B9A6802F00C02B2
:1002C800042A0CD0082A0CD0134A1249134B896807
:1002D800C1F30311595C22FA01F21A617047104AFE
:1002E800F3E7586859685B6842024CBF0C4A0A4AEF
:1002F80001F03F01C3F38813B2FBF1F202FB03F2F2
:10030800044B5B68C3F3014301335B00B2FBF3F2B8
:10031800DBE700BF003802400024F40000000020A2
:1003280040787D0130B50F4D044655F8200005EBA7
:10033800440583B0012104F08FFB2B8A0A4A0093FD
:10034800012352F824008DF8043000228DF807307C
:10035800694602238DF806208DF8053003F08AFCE3
:1003680003B030BDF8C1000814000020044A054B52
:1003780002EB400253F82030128A1A83704700BFFC
:10038800F8C1000814000020044A054B02EB4002A3
:1003980053F82030128A5A83704700BFF8C100080A
:1003A80014000020054A064B53F8203002EB4000A9
:1003B8005A69018A4A405A61704700BFF8C100086B
:1003C8001400002030B50446012087B00D460146D0
:1003D80004F042FB01214FF4804004F0C1FB06A960
:1003E800012241F8102D164A02EB840200241069FC
:1003F8008DF80C408DF80F4003F03CFC012D01D026
:1004080007B030BD2046214606F0FEFE082304A8AA
:100418008DF8153004958DF814408DF8165001F0BC
:1004280043FC0F23062201A88DF804208DF805301F
:100438008DF806308DF8075000F030F8E0E700BF7F
:100448001400002008B5044B03EB8000012100696B
:1004580003F0FCFC08BD00BF14000020B0F5E06FFD
:1004680010B504460DD0B0F5C06F0AD0B0F5A06F36
:1004780007D0B0F5806F04D0B0F5407358425841AA
:1004880000E00120FFF786FE44F0BF64024B44F40D
:100498000034DC6010BD00BF00ED00E038B5044654
:1004A800C07801288CBF00200120FFF773FE607818
:1004B8000F288CBF00200120FFF76CFEA0780F28C2
:1004C8008CBF00200120FFF765FEE3785BB9237835
:1004D8000122590903F01F0302FA03F32031144AD9
:1004E80042F8213038BD134B6578DA68A078237854
:1004F800D243C2F30222C2F10401C9B205FA01F1E2
:100508000F2545FA02F2C9B2024003F160430A43DB
:1005180003F56143120183F8002323780122590966
:1005280003F01F0302FA03F3014A42F8213038BDF1
:1005380000E100E000ED00E0B0F1005F38B50446EE
:100548000D4614D0B0F1006250425041FFF722FE30
:10055800084885428CBF0020012025F06045FFF740
:1005680019FE25F07F05044B2C439C6038BD012003
:10057800ECE700BFFEFF0F0000ED00E0102838B5E3
:1005880004460D4613D0042811D0811E4842484124
:10059800FFF700FE012D8CBF00200120FFF7FAFDB8
:1005A800054B1A692DB922EA04041C6138BD0120E3
:1005B800EEE714431C6138BD00ED00E0042808B5DF
:1005C8000BD0431D14BF00200120FFF7E3FD074BAC
:1005D8001A6822F004021A6008BD0120FFF7DAFD4C
:1005E800024B1A6842F004021A6008BD10E000E0ED
:1005F800054B00221F211A60DA6059619A61DA619D
:100608001A625A62704700BF000005502DE9F04198
:1006180004460088002877D0B0F1020EDEF1000011
:1006280050EB0E00FFF7B6FD608800286AD0B0F1E5
:10063800100778427841FFF7ADFDA08800285FD009
:10064800B0F1200670427041FFF7A4FDE088002851
:1006580054D0B0F1800568426841FFF79BFD2089BE
:10066800002849D0B0F1400148424841FFF792FDC7
:10067800608900282FD0B0F5807F2CD0B0F50072AB
:1006880050425041FFF786FDA08950BB0120FFF77B
:1006980081FD1E4B1A6822F4804222F001021A6082
:1006A800B4F802802288B4F804C0E78826896589EE
:1006B8001968A08948EA020242EA0C023A43324326
:1006C8002A4321F47F61024321F0020192B20A43D6
:1006D8001A60BDE8F0810120FFF75CFDA0890028C1
:1006E800D4D0B0F5806FD1D0B0F5006FCED0B0F5D2
:1006F800406358425841CAE70120B7E70120ACE7F8
:100708000120A1E7012096E701208BE700000550B2
:100718000023038043808380C380038143818381D6
:10072800704700BF01884288044B42EA01421A62BE
:100738008188C28842EA01425A6270470000055027
:10074800012810B504468CBF00200120FFF722FDC8
:10075800054B1A681CB922F004021A6010BD42F059
:1007680004021A6010BD00BF0000055082780178AD
:10077800C37810B44478120442EA04220A4342EAD5
:100788000362024B9A6110BC704700BF000005501D
:10079800012810B504468CBF00200120FFF7FAFCA1
:1007A800054B1A681CB922F008021A6010BD42F005
:1007B80008021A6010BD00BF00000550012810B5DE
:1007C80004468CBF00200120FFF7E4FC054B1A68A3
:1007D8001CB922F480421A6010BD42F480421A60AB
:1007E80010BD00BF00000550012810B504468CBF9D
:1007F80000200120FFF7CEFC054B1A681CB922F037
:1008080001021A6010BD42F001021A6010BD00BF5B
:1008180000000550014B986A704700BF0000055062
:1008280038B54FF6E073034004460D4693B90030DF
:1008380018BF0120FFF7AEFC012D8CBF002001205E
:10084800FFF7A8FC064B3DB9DA68E443A4B21440AC
:10085800DC6038BD0020EDE7DA681443DC6038BDA1
:1008680000000550A0F50053013B012B10B50446CC
:100878002DD942F2040398423AD001281DD002280B
:100888001BD0042819D0082817D0102815D041F2F9
:100898000103984226D00133984223D0023398426C
:1008A80020D0043398421DD041F21000B4EB000C64
:1008B800DCF1000050EB0C000AE00120FFF76AFCB5
:1008C8000D4B1B6923420CBF0020012010BD0120E5
:1008D800FFF760FC230B012B07D0022BF0D1064B4E
:1008E8005B68EFE70120FFF755FC034B9B68E9E7DE
:1008F8000120FFF74FFCF2E7000005504FF6E073C8
:10090800034010B504463BB9003018BF0120FFF77B
:1009180041FC024B5C6110BD0020F8E70000055067
:10092800431E012B10B5044608D9042806D0082810
:1009380004D0B0F110035842584100E00120FFF7FD
:1009480029FC034B1B691C420CBF0020012010BD71
:1009580000000550014B5861704700BF000005506A
:1009680038B5974B9842044660D01833984270D0F7
:100978001833984200F081801833984200F0918033
:10098800183398423FD01833984200F09E801833AD
:10099800984200F0AD801833984200F0D18003F5FA
:1009A8005673984200F0E5801833984200F0B380FF
:1009B8001833984200F0F0801833984200F0108104
:1009C8001833984200F020811833984200F02F81A4
:1009D8001833984200F03E817A4D431B5D425D41D9
:1009E8002846FFF7D7FB2268002322F00102226085
:1009F80023606360A360E360236121236361002DAA
:100A080040F0B28038BD0120FFF7C4FB2268002304
:100A180022F00102226023606360A360E360236127
:100A280021236361684A694BDA6038BD0120FFF70A
:100A3800B1FB2268002322F0010222602360636078
:100A4800A360E360236121236361604B3D229A60C8
:100A580038BD0120FFF79EFB2268002322F0010227
:100A6800226023606360A360E360236121236361E4
:100A7800564B4FF474629A6038BD0120FFF78AFB29
:100A88002268002322F00102226023606360A360D1
:100A9800E3602361212363614C4B4FF474129A6025
:100AA80038BD0120FFF776FB2268002322F00102FF
:100AB800226023606360A360E36023612123636194
:100AC800424B4FF074629A6038BD0120FFF762FB19
:100AD8002268002322F00102226023606360A36081
:100AE800E360236121236361394A384BDA6038BDFA
:100AF8000120FFF74FFB2268002322F00102226049
:100B080023606360A360E360236121236361314A4A
:100B18002E4BDA6038BD0120FFF73CFB2E4B1968DD
:100B2800002221F0010119601A605A609A60DA60A7
:100B38001A6121225A614FF4746243F8202C38BD9F
:100B48000120FFF727FB2268002322F00102226020
:100B580023606360A360E3602361212363611B4B0F
:100B68004FF03D52DA604DE71C4B4FF03D52DA60D2
:100B780038BD0120FFF70EFB2268002322F0010296
:100B8800226023606360A360E360236121236361C3
:100B9800124B3D229A6038BD0120FFF7FBFA22680C
:100BA800002322F00102226023606360A360E360F7
:100BB800236121236361094B4FF474129A6038BD95
:100BC80010600240B86402403D000020006002400E
:100BD800400F002000003D202864024000640240CD
:100BE8000120FFF7D7FA2268002322F001022260D1
:100BF80023606360A360E3602361212363611F4B6B
:100C08004FF074629A6038BD0120FFF7C3FA22687A
:100C1800002322F00102226023606360A360E36086
:100C2800236121236361164A144BDA6038BD012021
:100C3800FFF7B0FA2268002322F001022260236045
:100C48006360A360E3602361212363610D4A0B4B5A
:100C5800DA6038BD0120FFF79DFA2268002322F0F0
:100C68000102226023606360A360E36023612123A3
:100C78006361054A014BDA6038BD00BF0064024079
:100C88003D000020400F002000003D202DE9F843E2
:100C9800AD4B98428046894630D0183398422DD0C3
:100CA800183398422AD01833984227D018339842DC
:100CB80024D01833984221D0183398421ED01833C4
:100CC80098421BD003F55673984217D018339842B0
:100CD80014D01833984211D0183398420ED01833D4
:100CE80098420BD01833984208D01833984205D050
:100CF8009648B8EB00025042504100E00120FFF74F
:100D080049FAD9F80000B0B1B0F1007F13D0B0F1C2
:100D1800806F10D0B0F1C06F0DD0B0F1006F0AD065
:100D2800B0F1206F07D0B0F1406F04D0B0F160632C
:100D38005842584100E00120FFF72CFAD9F80C007E
:100D480040B1402806D0B0F1800CDCF1000050EB37
:100D58000C0000E00120FFF71DFAD9F810004FF64B
:100D6800FE73013898428CBF00200120FFF712FA69
:100D7800D9F81400B0F5007F00F0DB80D0F1010055
:100D880038BF0020FFF706FAD9F81800B0F5806FD1
:100D980000F0D880D0F1010038BF0020FFF7FAF941
:100DA800D9F81C0068B3B0F5006F2AD0B0F5805EA2
:100DB800DEF1000050EB0E00FFF7ECF9D9F8200047
:100DC80030BB0120FFF7E6F9D9F8240068B3B0F585
:100DD800807670427041FFF7DDF9D9F8280058B3E2
:100DE800B0F5803F28D0B0F5003F25D0B0F54035AC
:100DF80068426841FFF7CEF9D9F82C0018BB0120EA
:100E080024E00120FFF7C6F9D9F820000028D8D03F
:100E1800B0F5005FD5D0B0F5804778427841FFF74C
:100E2800B9F9D9F824000028D1D10120FFF7B2F987
:100E3800D9F828000028D3D10120FFF7ABF9D9F859
:100E48002C000028DBD0041F60426041FFF7A2F9A4
:100E5800D9F8300003288CBF00200120FFF79AF949
:100E6800D9F83400002852D0B0F5000F4FD0B0F1B7
:100E7800807F4CD0B0F1C07148424841FFF78AF9F1
:100E8800D9F83800002849D10120FFF783F9D9F8AB
:100E98000C30D9F80070D9F81460D9F81850D9F87E
:100EA8001C40D9F82000D9F82420D8F800C02849D7
:100EB8001F433E4335432C4320430243D9F82800BF
:100EC80042EA0003D9F83420D9F838001343034321
:100ED8000CEA01011943C8F80010D8F81410D9F821
:100EE8003020D9F82C3021F0070113430B43C8F800
:100EF8001430D9F81030C8F80430D9F80430C8F8DC
:100F08000830D9F80830C8F80C30BDE8F88301205B
:100F1800FFF740F9D9F838000028B5D0B0F5001F20
:100F2800B2D0B0F5800FAFD0B0F5C00250425041FA
:100F3800ABE70120FFF72EF9D9F81800B0F5806F5C
:100F48007FF428AF012029E710600240B86402400E
:100F58003F801CF00023036043608360C36003612B
:100F680043618361C361036243628362C362036353
:100F780043638363704700BF38B5244B98420446E7
:100F88000D462FD0183398422CD01833984229D0C8
:100F98001833984226D01833984223D018339842F1
:100FA80020D0183398421DD0183398421AD003F530
:100FB8005673984216D01833984213D01833984273
:100FC80010D0183398420DD0183398420AD01833ED
:100FD800984207D01833984204D00D48211A484245
:100FE800484100E00120FFF7D5F8012D8CBF002013
:100FF8000120FFF7CFF823681DB923F00103236010
:1010080038BD43F00103236038BD00BF10600240C3
:10101800B864024038B5284B984204460D4632D091
:10102800183398422FD0183398422CD0183398424E
:1010380029D01833984226D01833984223D0183331
:10104800984220D0183398421DD003F55673984221
:1010580019D01833984216D01833984213D0183341
:10106800984210D0183398420DD0183398420AD0BD
:101078001833984207D01148B4EB000CDCF100009B
:1010880050EB0C0000E00120FFF784F865B1B5F5DE
:10109800004EDEF1000050EB0E00FFF77BF82368EE
:1010A80043F40043236038BD0120FFF773F8236839
:1010B80023F40043236038BD10600240B864024046
:1010C80038B5264B984204460D462FD0183398421F
:1010D8002CD01833984229D01833984226D0183388
:1010E800984223D01833984220D0183398421DD004
:1010F800183398421AD003F55673984216D018330D
:10110800984213D01833984210D0183398420DD013
:10111800183398420AD01833984207D018339842A7
:1011280004D00F48221A5042504100E00120FFF736
:1011380031F855B1B5F1200358425841FFF72AF864
:10114800236843F02003236038BD0120FFF722F80D
:10115800236823F02003236038BD00BF10600240DD
:10116800B864024038B51D4B984204460D462FD04E
:10117800183398422CD01833984229D01833984203
:1011880026D01833984223D01833984220D01833E9
:1011980098421DD0183398421AD003F556739842D6
:1011A80016D01833984213D01833984210D01833F9
:1011B80098420DD0183398420AD01833984207D075
:1011C8001833984204D00648211A4842484100E0A2
:1011D8000120FEF7DFFF656038BD00BF10600240E8
:1011E800B86402401E4B984210B5044632D01833FA
:1011F80098422FD0183398422CD01833984229D0CF
:101208001833984226D01833984223D0183398427E
:1012180020D0183398421DD003F55673984219D040
:101228001833984216D01833984213D0183398427E
:1012380010D0183398420DD0183398420AD018337A
:10124800984207D00748B4EB000EDEF1000050EBDF
:101258000E0000E00120FEF79DFF606880B210BD1F
:1012680010600240B8640240284B984270B50446AA
:101278000E4615462FD0183398422CD01833984272
:1012880029D01833984226D01833984223D01833DF
:10129800984220D0183398421DD0183398421AD05B
:1012A80003F55673984216D01833984213D0183362
:1012B800984210D0183398420DD0183398420AD06B
:1012C8001833984207D01833984204D01048231A8C
:1012D8005842584100E00120FEF75CFF6DB1B5F5BA
:1012E800002CDCF1000050EB0C00FEF753FF2368E4
:1012F80043F400232360266170BD0120FEF74AFFF6
:10130800236823F400232360266170BD1060024027
:10131800B864024038B5244B984204460D462FD095
:10132800183398422CD01833984229D01833984251
:1013380026D01833984223D01833984220D0183337
:1013480098421DD0183398421AD003F55673984224
:1013580016D01833984213D01833984210D0183347
:1013680098420DD0183398420AD01833984207D0C3
:101378001833984204D00D48221A5042504100E0D8
:101388000120FEF707FF012D8CBF00200120FEF78A
:1013980001FF23681DB923F48023236038BD43F47B
:1013A8008023236038BD00BF10600240B86402404B
:1013B800254B984270B504460E46154632D0183370
:1013C80098422FD0183398422CD01833984229D0FD
:1013D8001833984226D01833984223D018339842AD
:1013E80020D0183398421DD003F55673984219D06F
:1013F8001833984216D01833984213D018339842AD
:1014080010D0183398420DD0183398420AD01833A8
:10141800984207D00D48B4EB000EDEF1000050EB07
:101428000E0000E00120FEF7B5FE3DB1B5F5002144
:1014380048424841FEF7AEFE266170BD0120FEF726
:10144800A9FEE66070BD00BF10600240B8640240AB
:101458001F4B984210B5044632D0183398422FD00B
:10146800183398422CD01833984229D01833984210
:1014780026D01833984223D01833984220D01833F6
:1014880098421DD003F55673984219D018339842E4
:1014980016D01833984213D01833984210D0183306
:1014A80098420DD0183398420AD01833984207D082
:1014B8000848B4EB000CDCF1000050EB0C0000E035
:1014C8000120FEF767FE2068C0F3C04010BD00BFD2
:1014D80010600240B86402401D4B984210B50446A3
:1014E8002FD0183398422CD01833984229D018336B
:1014F800984226D01833984223D01833984220D0E7
:10150800183398421DD0183398421AD003F55673F1
:10151800984216D01833984213D01833984210D0F6
:10152800183398420DD0183398420AD0183398428D
:1015380007D01833984204D00648231A5842584115
:1015480000E00120FEF726FE206800F0010010BD33
:1015580010600240B86402401D4B984210B5044622
:101568002FD0183398422CD01833984229D01833EA
:10157800984226D01833984223D01833984220D066
:10158800183398421DD0183398421AD003F5567371
:10159800984216D01833984213D01833984210D076
:1015A800183398420DD0183398420AD0183398420D
:1015B80007D01833984204D00648221A50425041A6
:1015C80000E00120FEF7E6FD606900F0380010BD7C
:1015D80010600240B864024038B56E4B9842044629
:1015E8000D4632D0183398422FD0183398422CD059
:1015F8001833984229D01833984226D01833984285
:1016080023D01833984220D0183398421DD003F5C0
:101618005673984219D01833984216D01833984206
:1016280013D01833984210D0183398420DD018337D
:1016380098420AD01833984207D05748B4EB000CA8
:10164800DCF1000050EB0C0000E00120FEF7A2FDE9
:10165800524B9D4200F08780103B9D4200F08380F2
:10166800083B9D427FD04E4B9D427CD0033B9D4220
:1016780079D04C4B9D4276D0A3F580639D4272D0C1
:10168800A3F500739D426ED0A3F580739D426AD086
:10169800C03B9D4267D0B5F1815F64D0424B9D420B
:1016A80061D0A3F500239D425DD0A3F580239D4220
:1016B80059D0A3F540339D4255D0B5F1C05F52D003
:1016C800B5F1A05F4FD0B5F1905F4CD0B5F1885F10
:1016D80049D0B5F1825F46D0344B9D4243D0103B90
:1016E8009D4240D0083B9D423DD0043B9D423AD0AC
:1016F800033B9D4237D02E4B9D4234D0A3F58063E7
:101708009D4230D0A3F500739D422CD0A3F5807381
:101718009D4228D0C03B9D4225D0264B9D4222D0D9
:10172800A3F580139D421ED0A3F500239D421AD035
:10173800A3F580239D4216D0A3F540339D4212D0D5
:10174800B5F1205F0FD0B5F1105F0CD0B5F1085F8F
:1017580009D0B5F1045F06D0B5F1015EDEF10000F5
:1017680050EB0E0000E00120FEF714FD124B134968
:10177800134A8C428CBF14461C46A9004CBF6368B0
:10178800236825F0F02525F082151D420CBF0020A6
:10179800012038BD10600240B864024020000010EB
:1017A8000400801000080010000010102000002025
:1017B8000008002000002020006002400F64024062
:1017C8000064024038B52C4B984204460D462FD091
:1017D800183398422CD01833984229D0183398429D
:1017E80026D01833984223D01833984220D0183383
:1017F80098421DD0183398421AD003F55673984270
:1018080016D01833984213D01833984210D0183392
:1018180098420DD0183398420AD01833984207D00E
:101828001833984204D01548231A5842584100E00A
:101838000120FEF7AFFC05F04050B0F1405F19D031
:1018480028B10F482840D0F1010038BF0020FEF72A
:10185800A1FC0C4B0C4A0D498C428CBF14461C460B
:1018680015F0005F25F0F02525F0821514BFE5601E
:10187800A56038BD0020EAE710600240B864024065
:1018880082F082C000600240006402400F6402409F
:10189800344B984270B504460D4616462FD018337F
:1018A80098422CD01833984229D01833984226D021
:1018B8001833984223D01833984220D018339842CE
:1018C8001DD0183398421AD003F55673984216D093
:1018D8001833984213D01833984210D018339842CE
:1018E8000DD0183398420AD01833984207D01833CD
:1018F800984204D01C48211A4842484100E001207F
:10190800FEF748FC35F09E0324D1281C18BF01209F
:10191800FEF740FC012E8CBF00200120FEF73AFCA8
:101928002A060CD56369BEB143F08003802D63613C
:101938000FD0236805F01E051D43256070BD802D5E
:1019480007D0002EF5D1236805F01E0523EA05050A
:10195800256070BD0020DBE723F08003802D6361E4
:10196800F1D170BD10600240B8640240714B9842DA
:1019780070B504460D462FD0183398422CD0183332
:10198800984229D01833984226D01833984223D049
:101998001833984220D0183398421DD018339842F3
:1019A8001AD003F55673984216D01833984213D0BC
:1019B8001833984210D0183398420DD018339842F3
:1019C8000AD01833984207D01833984204D05A489E
:1019D800211A4842484100E00120FEF7DBFB574B43
:1019E8009D4200F08380564B9D427FD0554B9D42CF
:1019F8007CD0554B9D4279D0544B9D4276D0544B68
:101A08009D4273D0A3F588439D426FD0A3F5085338
:101A18009D426BD0A3F588539D4267D04D4B9D42A4
:101A280064D04D4B9D4261D0A3F582139D425DD099
:101A3800A3F502239D4259D0A3F582239D4255D098
:101A4800464B9D4252D0464B9D424FD0454B9D42FE
:101A58004CD0454B9D4249D0444B9D4246D0444BC7
:101A68009D4243D0434B9D4240D0434B9D423DD085
:101A7800424B9D423AD0424B9D4237D0414B9D420A
:101A880034D0414B9D4231D0A3F588439D422DD09F
:101A9800A3F508539D4229D0A3F588539D4225D02C
:101AA8003A4B9D4222D03A4B9D421FD0A3F5821358
:101AB8009D421BD0A3F502239D4217D0A3F5822394
:101AC8009D4213D0334B9D4210D0334B9D420DD0D5
:101AD800324B9D420AD0324B9D4207D0314B9D423A
:101AE80004D031482A1A5042504100E00120FEF744
:101AF80051FB2E4E2E492F4A25F0F02020F0C3131B
:101B0800B44298BF0A4683B1216801F01E0101EA78
:101B1800D521AB004CBF5368136820F082101840E1
:101B280002D0081C18BF012070BD616901F0800156
:101B3800EFE700BF10600240B86402402080001048
:101B48001040001008200010041000100100009040
:101B580000880010400000900080201000000190D4
:101B6800008000180040001400200012001000112E
:101B78000000409020800020104000200820002015
:101B880004100020010000A000880020400000A0F0
:101B980000802020000001A00080002800400024D0
:101BA8000020002200100021000040A00F64024025
:101BB800006002400064024038B52E4B984204464B
:101BC8000D4632D0183398422FD0183398422CD073
:101BD8001833984229D01833984226D0183398429F
:101BE80023D01833984220D0183398421DD003F5DB
:101BF8005673984219D01833984216D01833984221
:101C080013D01833984210D0183398420DD0183397
:101C180098420AD01833984207D01748B4EB000E00
:101C2800DEF1000050EB0E0000E00120FEF7B2FAF2
:101C380005F04050B0F1405F19D028B10F48284056
:101C4800D0F1010038BF0020FEF7A4FA0C4B0D4A72
:101C58000D498C428CBF14461C4615F0005F25F0D8
:101C6800F02525F0821514BFE560A56038BD002079
:101C7800EAE700BF10600240B86402408200824078
:101C880000600240006402400F640240044B0022DE
:101C98001A605A609A60DA60024A5A61704700BF57
:101CA800003C0140FFFF7F0010B504460079002882
:101CB8004BD0021F50425041FEF76CFA6079082859
:101CC80049D00C2847D0B0F1100358425841FEF7CC
:101CD80061FA2068C30D44D1003018BF0120FEF717
:101CE80059FAA07901288CBF00200120FEF752FA8A
:101CF800A379002B37D0264B2268196821EA020203
:101D08001A605968226821EA02025A602279216819
:101D180002F1804202F59E32106801431160996811
:101D2800226821EA02029A60D968226821EA02023E
:101D3800DA606279102A21D002F1804202F59E32DF
:101D4800236811680B43136010BD0120FEF722FAC7
:101D580060790828B5D10120FEF71CFA2068C30D68
:101D6800BAD00020BBE72379216803F1804303F54B
:101D78009E331A6822EA01021A6010BD9968226827
:101D88000A439A60D96822680A43DA6010BD00BF26
:101D9800003C014000230C220360037142718371EF
:101DA800704700BFC30D10B5044609D1003018BFF5
:101DB8000120FEF7EFF9034B1A6914431C6110BDAB
:101DC8000020F6E7003C0140431E012B10B50446F5
:101DD8003AD9042838D0082836D0102834D02028FA
:101DE80032D0402830D080282ED0B0F5807F2BD03C
:101DF800B0F5007F28D0B0F5806F25D0B0F5006F22
:101E080022D0B0F5805F1FD0B0F5005F1CD0B0F5D0
:101E1800804F19D0B0F5004F16D0B0F5803F13D0E1
:101E2800B0F5003F10D0B0F5802F0DD0B0F5002FE1
:101E38000AD0B0F5801F07D0B0F5001F04D0B0F568
:101E480080014842484100E00120FEF7A3F9034B16
:101E58005B691C420CBF0020012010BD003C014002
:101E6800C30D10B5044607D1003018BF0120FEF796
:101E780091F9024B5C6110BD0020F8E7003C01407D
:101E8800431E012B10B504463CD904283AD0082833
:101E980038D0102836D0202834D0402832D0802896
:101EA80030D0B0F5807F2DD0B0F5007F2AD0B0F5C6
:101EB800806F27D0B0F5006F24D0B0F5805F21D0B7
:101EC800B0F5005F1ED0B0F5804F1BD0B0F5004FC5
:101ED80018D0B0F5803F15D0B0F5003F12D0B0F55E
:101EE800802F0FD0B0F5002F0CD0B0F5801F09D08F
:101EF800B0F5001F06D0B0F5800EDEF1000050EB03
:101F08000E0000E00120FEF745F9054B1A685869F4
:101F1800204003D014420CBF0020012010BD00BF98
:101F2800003C0140C30D10B5044607D1003018BF6E
:101F38000120FEF72FF9024B5C6110BD0020F8E785
:101F4800003C0140072810B504468CBF0020012042
:101F5800FEF720F9014B1C7010BD00BF003C024089
:101F6800012810B504468CBF00200120FEF712F9A5
:101F7800054B1A681CB922F480721A6010BD42F42D
:101F880080721A6010BD00BF003C0240012810B5E5
:101F980004468CBF00200120FEF7FCF8054B1A68A8
:101FA8001CB922F400721A6010BD42F400721A6063
:101FB80010BD00BF003C0240012810B504468CBF8C
:101FC80000200120FEF7E6F8054B1A681CB922F438
:101FD80080621A6010BD42F480621A6010BD00BFB2
:101FE800003C0240024B1A6842F400621A607047D3
:101FF800003C0240024B1A6842F480521A60704753
:10200800003C0240044B1A69002A04DA034A5A6069
:1020180002F188325A607047003C0240230167454C
:10202800024B1A6942F000421A617047003C0240B4
:1020380030B5054683B00C46D0B1082818D0102812
:1020480016D0182814D0202812D0282810D03028CC
:102058000ED038280CD040280AD0482808D050285C
:1020680006D0B0F1580EDEF1000050EB0E0000E093
:102078000120FEF78FF8032C8CBF00200120FEF70B
:1020880089F83CB1012C48D0022C14BF4FF440749D
:102098004FF400740822574B8DF80620DA68D103F4
:1020A80039D4DA68D20623D505238DF806309DF891
:1020B8000630012B15D14F4A09E0D368D9061DD542
:1020C80005238DF806309DF80630012B09D1D36819
:1020D800D803F2D501238DF806309DF80630012B80
:1020E800F5D09DF80620082A104620D003B030BD50
:1020F800DA6812F0EF0F13D00623D6E7D36813F08F
:10210800EF0F01D00623DCE7D36813F0020F0CBFF2
:1021180008230723D5E70123C7E74FF48074B9E7FD
:10212800DB6813F0020F0CBF08230723BDE7314B10
:10213800196921F44071196119690C431C61196905
:1021480021F0F8011961196941F002010D431D617F
:10215800196941F4803119618DF80720DA68D203D2
:1021680038D4DA68D00637D505238DF807309DF8BE
:102178000730012B15D11F4A09E0D368DB061CD5AF
:1021880005238DF807309DF80730012B09D1D36856
:10219800D903F2D501238DF807309DF80730012BBC
:1021A800F5D0144B9DF807001A6922F002021A6153
:1021B8001A6922F0F8021A6198E7D36813F0EF0F52
:1021C80001D00623DDE7D36813F0020F0CBF082304
:1021D8000723D6E70123C8E7DA6812F0EF0F01D02A
:1021E8000623C2E7DB6813F0020F0CBF082307239E
:1021F800BBE700BF003C024070B582B008225B4BD1
:102208008DF80620DA68D103044649D4DA68D20684
:1022180033D505238DF806309DF80630012B15D1EE
:10222800524A09E0D368DE062DD505238DF806301D
:102238009DF80630012B09D1D368DB03F2D50123C1
:102248008DF806309DF80630012BF5D0032C9DF84B
:1022580006608CBF00200120F5B2FDF79BFF3CB162
:10226800012C69D0022C14BF4FF440744FF4007451
:10227800082D1ED0284602B070BDDA6812F0EF0FA4
:1022880010D00623C6E7D36813F0EF0F01D006235A
:10229800CCE7D36813F0020F0CBF08230723C5E768
:1022A8000123B7E7DB6813F0020F0CBF08230723ED
:1022B800B0E72E4B1A6922F440721A611A69144366
:1022C8001C611A6942F004021A611A6942F48032E8
:1022D8001A618DF80760DA68D50337D4DA68D00652
:1022E80036D505238DF807309DF80730012B15D119
:1022F8001E4A09E0D368DB0618D505238DF8073098
:102308009DF80730012B09D1D368D903F2D50123F1
:102318008DF807309DF80730012BF5D0134B9DF849
:1023280007501A6922F004021A61A3E7D36813F070
:10233800EF0F04D00623E1E74FF4807498E7D368E1
:1023480013F0020F0CBF08230723D7E70123C9E7BF
:10235800DA6812F0EF0F01D00623C3E7DB6813F049
:10236800020F0CBF08230723BCE700BF003C024054
:1023780070B51D465B4B00F17841994282B0064624
:10238800144639D900F1604000F5084040F20E23A8
:1023980098428CBF00200120FDF7FCFE0822524B1A
:1023A8008DF80620DA68D2033BD4DA68D00625D542
:1023B80005238DF806309DF80630012B15D14A4AC1
:1023C80009E0D368DB061FD505238DF806309DF894
:1023D8000630012B09D1D368D903F2D501238DF832
:1023E80006309DF80630012BF5D09DF80630082BF5
:1023F80018461FD002B070BD0120CDE7DA6812F090
:10240800EF0F10D00623D4E7D36813F0EF0F01D0F5
:102418000623DAE7D36813F0020F0CBF082307235B
:10242800D3E70123C5E7DB6813F0020F0CBF0823CD
:102438000723BEE72C4A116921F440711161116923
:1024480041F440711161116941F001011161C6E95E
:1024580000458DF80730D368D80334D4D368D9063B
:1024680033D505238DF807309DF80730012B15D19A
:102478001D4A09E0D368D80618D505238DF807301A
:102488009DF80730012B09D1D368DB03F2D501236E
:102498008DF807309DF80730012BF5D0124B9DF8C9
:1024A80007001A6922F001021A61A3E7D36813F042
:1024B800EF0F01D00623E1E7D36813F0020F0CBF3A
:1024C80008230723DAE70123CCE7D36813F0EF0FDB
:1024D80001D00623C6E7D36813F0020F0CBF082308
:1024E8000723BFE7FEFF0F00003C024030B55B4A00
:1024F80000F17843934283B005460C4639D900F180
:10250800604000F5084040F20E2398428CBF00203E
:102518000120FDF73FFE0822514B8DF80620DA68AE
:10252800D1033BD4DA68D20625D505238DF80630C9
:102538009DF80630012B15D1494A09E0D368D80621
:102548001FD505238DF806309DF80630012B09D1DB
:10255800D368DB03F2D501238DF806309DF80630E9
:10256800012BF5D09DF80630082B18461FD003B074
:1025780030BD0120CDE7DA6812F0EF0F10D0062346
:10258800D4E7D36813F0EF0F01D00623DAE7D36856
:1025980013F0020F0CBF08230723D3E70123C5E775
:1025A800DB6813F0020F0CBF08230723BEE72C4A91
:1025B800116921F440711161116941F400711161CF
:1025C800116941F0010111612C608DF80730D36861
:1025D800D90334D4D368DB0633D505238DF8073007
:1025E8009DF80730012B15D11D4A09E0D368D9069B
:1025F80018D505238DF807309DF80730012B09D130
:10260800D368D803F2D501238DF807309DF8073039
:10261800012BF5D0124B9DF807001A6922F0010230
:102628001A61A4E7D36813F0EF0F01D00623E1E79E
:10263800D36813F0020F0CBF08230723DAE701233E
:10264800CCE7D36813F0EF0F01D00623C6E7D368B1
:1026580013F0020F0CBF08230723BFE7FEFF0F008C
:10266800003C024030B55B4A00F17843934283B0A6
:1026780005460C4639D900F1604000F5084040F2A3
:102688000E2398428CBF00200120FDF783FD08220D
:10269800514B8DF80620DA68D2033BD4DA68D006AD
:1026A80025D505238DF806309DF80630012B15D168
:1026B800494A09E0D368DB061FD505238DF80630A3
:1026C8009DF80630012B09D1D368D903F2D501232F
:1026D8008DF806309DF80630012BF5D09DF80630B0
:1026E800082B18461FD003B030BD0120CDE7DA68AB
:1026F80012F0EF0F10D00623D4E7D36813F0EF0FD2
:1027080001D00623DAE7D36813F0020F0CBF0823C1
:102718000723D3E70123C5E7DB6813F0020F0CBFDB
:1027280008230723BEE72C4A116921F4407111617F
:10273800116941F480711161116941F00101116160
:102748002C808DF80730D368D80334D4D368D906E1
:1027580033D505238DF807309DF80730012B15D1A7
:102768001D4A09E0D368D80618D505238DF8073027
:102778009DF80730012B09D1D368DB03F2D501237B
:102788008DF807309DF80730012BF5D0124B9DF8D6
:1027980007001A6922F001021A61A4E7D36813F04E
:1027A800EF0F01D00623E1E7D36813F0020F0CBF47
:1027B80008230723DAE70123CCE7D36813F0EF0FE8
:1027C80001D00623C6E7D36813F0020F0CBF082315
:1027D8000723BFE7FEFF0F00003C024030B55A4A0E
:1027E80000F17843934283B005460C4639D900F18D
:1027F800604000F5084040F20E2398428CBF00204C
:102808000120FDF7C7FC0822504B8DF80620DA6836
:10281800D1033BD4DA68D20625D505238DF80630D6
:102828009DF80630012B15D1484A09E0D368D8062F
:102838001FD505238DF806309DF80630012B09D1E8
:10284800D368DB03F2D501238DF806309DF80630F6
:10285800012BF5D09DF80630082B18461FD003B081
:1028680030BD0120CDE7DA6812F0EF0F10D0062353
:10287800D4E7D36813F0EF0F01D00623DAE7D36863
:1028880013F0020F0CBF08230723D3E70123C5E782
:10289800DB6813F0020F0CBF08230723BEE72B4A9F
:1028A800116921F44071116111691161116941F0D7
:1028B800010111612C708DF80730D368D90334D425
:1028C800D368DB0633D505238DF807309DF807302C
:1028D800012B15D11D4A09E0D368D90618D505235F
:1028E8008DF807309DF80730012B09D1D368D8033C
:1028F800F2D501238DF807309DF80730012BF5D06C
:10290800124B9DF807001A6922F001021A61A6E726
:10291800D36813F0EF0F01D00623E1E7D36813F073
:10292800020F0CBF08230723DAE70123CCE7D3689B
:1029380013F0EF0F01D00623C6E7D36813F0020F98
:102948000CBF08230723BFE7FEFF0F00003C02402F
:10295800044B5A69D00704D5034A9A6002F14432FD
:102968009A607047003C02403B2A1908024B5A699A
:1029780042F001025A617047003C024030B520F431
:102988007F6323F00F0383B004460D46002B37D135
:10299800003018BF0120FDF7FDFB012D8CBF002082
:1029A8000120FDF7F7FB08222A4B8DF80720DA688B
:1029B800D2033AD4DA68D00624D505238DF8073037
:1029C8009DF80730012B15D1224A09E0D368DB06B0
:1029D8001ED505238DF807309DF80730012B09D146
:1029E800D368D903F2D501238DF807309DF8073055
:1029F800012BF5D09DF80730082B18D003B030BD57
:102A08000020C8E7DA6812F0EF0F16D00623D5E7E2
:102A1800D36813F0EF0F01D00623DBE7D36813F078
:102A2800020F0CBF08230723D4E70123C6E70A4B8C
:102A38001A884DB914431C80E0E7DB6813F0020FD5
:102A48000CBF08230723B9E792B222EA04041C80CA
:102A5800D4E700BF003C0240163C024010B5AA284B
:102A680082B004464BD0B0F1550EDEF1000050EBB9
:102A78000E00FDF78FFB0822254B8DF80720DA683A
:102A8800D1033AD4DA68D20624D505238DF8073065
:102A98009DF80730012B15D11D4A09E0D368D906E6
:102AA8001ED505238DF807309DF80730012B09D175
:102AB800D368D803F2D501238DF807309DF8073085
:102AC800012BF5D09DF80730082B01D1114B1C7054
:102AD80002B010BDDA6812F0EF0F12D00623D5E766
:102AE800D36813F0EF0F01D00623DBE7D36813F0A8
:102AF800020F0CBF08230723D4E70123C6E70120F0
:102B0800B7E7DB6813F0020F0CBF08230723BDE704
:102B1800003C0240153C0240F0B5202883B007462F
:102B28000E4615465FD0D0F1010038BF0020FDF7F2
:102B380031FB402E5CD0D6F1010038BF0020FDF7F4
:102B480029FB802D59D0D5F1010038BF0020FDF7B1
:102B580021FB08222D4B8DF80720DA68D00340D4DA
:102B6800DA68D1062AD505238DF807309DF8073095
:102B7800012B15D1254C09E0E368DB0624D5052394
:102B88008DF807309DF80730012B09D1E368DA0387
:102B9800F2D501238DF807309DF80730012BF5D0C9
:102BA8009DF80730082B07D1194B1A7802F00F024D
:102BB80017433E4335431D7003B0F0BDDA6812F089
:102BC800EF0F1CD00623CFE7E36813F0EF0F01D017
:102BD8000623D5E7E36813F0020F0CBF0823072389
:102BE800CEE70123C0E70120FDF7D4FA402EA2D199
:102BF8000120FDF7CFFA802DA5D10120A7E7DB68DA
:102C080013F0020F0CBF08230723ADE7003C024076
:102C1800143C0240082810B5044609D0042807D0FF
:102C280030B1B0F10C0EDEF1000050EB0E0000E008
:102C38000120FDF7AFFA044B1A7802F0F3021A707C
:102C48001A7814431C7010BD143C0240264B274AC6
:102C5800197882B041F00201197008238DF8073005
:102C6800D368DB0336D4D368D80620D505238DF87E
:102C780007309DF80730012B15D11C4A09E0D368AD
:102C8800DB061AD505238DF807309DF80730012B90
:102C980009D1D368D903F2D501238DF807309DF8FF
:102CA8000730012BF5D09DF8070002B07047D368B4
:102CB80013F0EF0F10D00623D9E7D36813F0EF0F06
:102CC80001D00623DFE7D36813F0020F0CBF0823F7
:102CD8000723D8E70123CAE7D36813F0020F0CBF14
:102CE80008230723C3E700BF143C0240003C02400E
:102CF800024B5869C0F34710704700BF003C0240C0
:102D0800014B188880B27047163C0240024B187875
:102D1800AA3818BF01207047153C0240024B1878AA
:102D280000F00C00704700BF143C024038B530F08A
:102D3800407304460D4611D1003018BF0120FDF73D
:102D480029FA012D8CBF00200120FDF723FA064B3C
:102D58001A692DB922EA04041C6138BD0020EEE787
:102D680014431C6138BD00BF003C0240431E012BC8
:102D780010B504460CD910280AD0202808D04028BD
:102D880006D0802804D0B0F580325042504100E08F
:102D98000120FDF7FFF9034BDB681C420CBF002044
:102DA800012010BD003C024030F0F30310B504468A
:102DB80007D1003018BF0120FDF7ECF9024BDC60A9
:102DC80010BD0020F8E700BF003C02400B4BDA685A
:102DD800D0030AD4DA68D10601D505207047DA682D
:102DE80012F0EF0F03D00620704701207047DB6810
:102DF80013F0020F0CBF082007207047003C024068
:102E080082B00822224B8DF80720DA68D20336D424
:102E1800DA68D00620D505238DF807309DF80730ED
:102E2800012B15D11A4A09E0D368DB061AD5052308
:102E38008DF807309DF80730012B09D1D368D903E5
:102E4800F2D501238DF807309DF80730012BF5D016
:102E58009DF8070002B07047DA6812F0EF0F10D043
:102E68000623D9E7D36813F0EF0F01D00623DFE775
:102E7800D36813F0020F0CBF08230723D8E70123F8
:102E8800CAE7DB6813F0020F0CBF08230723C3E768
:102E9800003C024010B5044678B1022821D004282D
:102EA8001FD0831F58425841FDF774F94FF0204353
:102EB80043F2D20243F8242007E00120FDF76AF923
:102EC8004FF0204343F2DB021A604FF02042611CAE
:102ED8006FF0704342F8213002F5827242F82430D4
:102EE80010BD0120E0E700BF2DE9F04180460068F1
:102EF800002800F0D480022800F0D180042800F0D7
:102F0800CE80871F78427841FDF744F9D8F804004D
:102F1800002840F0CC800120FDF73CF9D8F80800E3
:102F2800002840F0CE800120FDF734F9D8F80C00D5
:102F3800002800F0D480B0F1100460426041FDF731
:102F480029F9D8F81000002800F0D180B0F5807178
:102F580048424841FDF71EF9D8F81400002800F04F
:102F6800CE80B0F5004250425041FDF713F9D8F831
:102F78001800002800F0CB80B0F500735842584183
:102F8800FDF708F9D8F81C00002800F0C880B0F553
:102F9800806CDCF1000050EB0C00FDF7FBF8D8F872
:102FA8002000002800F0C380B0F5006EDEF10000BC
:102FB80050EB0E00FDF7EEF8D8F82400002800F0DA
:102FC800BE80B0F5805778427841FDF7E3F8D8F82D
:102FD8002800002800F0BB80B0F500567042704110
:102FE800FDF7D8F8D8F82C00002800F0B880B0F524
:102FF800804568426841FDF7CDF8D8F830000028D0
:1030080000F0B580B0F5002460426041FDF7C2F8D9
:10301800D8F8343018680F288CBF00200120FDF73D
:10302800B9F8D8F8343058680F288CBF0020012030
:10303800FDF7B0F8D8F8343098680138FE288CBF0E
:1030480000200120FDF7A6F8D8F83430D8680F28FA
:103058008CBF00200120FDF79DF8D8F8343018699E
:103068000F288CBF00200120FDF794F8D8F83430E1
:1030780058690F288CBF00200120FDF78BF8D8F87D
:1030880034309869002874D0B0F1805F71D0B0F105
:10309800005F6ED0B0F14051484248416AE00120DB
:1030A800FDF778F8D8F8040000283FF434AF861EFE
:1030B80070427041FDF76EF8D8F8080000283FF418
:1030C80032AF04283FF42FAFB0F1080568426841D9
:1030D800FDF760F8D8F80C0000287FF42CAF012029
:1030E800FDF758F8D8F8100000287FF42FAF01201A
:1030F800FDF750F8D8F8140000287FF432AF01200B
:10310800FDF748F8D8F8180000287FF435AF0120FB
:10311800FDF740F8D8F81C0000287FF438AF0120EC
:10312800FDF738F8D8F8200000287FF43DAF0120DB
:10313800FDF730F8D8F8240000287FF442AF0120CA
:10314800FDF728F8D8F8280000287FF445AF0120BB
:10315800FDF720F8D8F82C0000287FF448AF0120AC
:10316800FDF718F8D8F8300000287FF44BAF01209D
:103178004CE70120FDF70EF8D8F80870D8F804607D
:10318800D8F80C50D8F8104008F1140007C83E438E
:1031980035432C43204301430A43D8F8201042EA20
:1031A8000103D8F82420D8F828101343D8F82C2085
:1031B8000B43D8F8301013430B434FF02042D8F894
:1031C800001042F82130D8F80830082B28D0D8F859
:1031D8003430D8F800209F699D68DC68186993E846
:1031E8004200394341EA061141EA05215B6941EA97
:1031F800044141EA0051013241EA03614FF02043A2
:1032080043F82210D8F82C30B3F5804F11D0D8F8F5
:103218000020344B6FF0704143F82210BDE8F08174
:10322800D8F8003052F8231041F0400142F823103A
:10323800CDE7D8F8383018680F288CBF0020012057
:10324800FCF7A8FFD8F8383058680F288CBF002042
:103258000120FCF79FFFD8F8383098680138FE281D
:103268008CBF00200120FCF795FFD8F8383018698A
:103278000F288CBF00200120FCF78CFFD8F83830CD
:1032880058690F288CBF00200120FCF783FFD8F86D
:103298003830986918B3B0F1805F20D0B0F1005F82
:1032A8001DD0B0F1405250425041FCF773FFD8F89E
:1032B8003830D8F800209E699C68186993E8220085
:1032C800314341EA05115B6941EA042141EA0051B1
:1032D80041EA0361034B43F82210BDE8F081012065
:1032E800E3E700BF040100A010B40224416B44606E
:1032F8004FF4805400230F2244624FF40054846238
:1033080003608360C360036143618361C3610362D7
:10331800C36203630A60416B4A60446BFF21A1608A
:10332800446BE260446B2261446B6261446BA3614D
:10333800846B2260846B6260846BA160816BCA605D
:10334800816B0A61816B4A61826B936110BC704723
:1033580038B504460D4650B1022808D0042806D0D6
:10336800B0F1060EDEF1000050EB0E0000E0012087
:10337800FCF710FF012D8CBF00200120FCF70AFF8D
:1033880045B94FF02042084B52F824100B4042F840
:10339800243038BD4FF0204353F8242042F0010276
:1033A80043F8242038BD00BFFEFF0F00102808B5E1
:1033B80011D0B0F5807CDCF1000050EB0C00FCF77C
:1033C800E9FE074B182119604FF0FC324021596083
:1033D8009A60DA6008BD0120FCF7DCFE014BF1E7DA
:1033E800800000A0600000A02DE9F04F04460068AE
:1033F800102883B000F0D180B0F58073584258414E
:10340800FCF7C8FE6068002800F0C580B0F1020B28
:10341800DBF1000050EB0B00FCF7BCFEA0680028B5
:1034280000F0B780B0F1100ADAF1000050EB0A00A2
:10343800FCF7B0FEE068002800F0A980B0F1400970
:10344800D9F1000050EB0900FCF7A4FE206990B107
:10345800B0F5003F0FD0B0F5802F0CD0B0F5C02FDD
:1034680009D0B0F5002F06D0B0F52028D8F100001B
:1034780050EB080000E00120FCF78CFE6069FF2893
:103488008CBF00200120FCF785FEA069FF288CBFB7
:1034980000200120FCF77EFEE3691868FF288CBF36
:1034A80000200120FCF776FEE3695868FF288CBFEE
:1034B80000200120FCF76EFEE3699868FF288CBFA6
:1034C80000200120FCF766FEE369D868FF288CBF5E
:1034D80000200120FCF75EFE236A1868FF288CBFD5
:1034E80000200120FCF756FE236A5868FF288CBF8D
:1034F80000200120FCF74EFE236A9868FF288CBF45
:1035080000200120FCF746FE236AD868FF288CBFFC
:1035180000200120FCF73EFEE269D4F804B0D4F89C
:1035280008A0236A1168D4F80C902769D2F808809B
:10353800566800914BEA0A0A4AF0080A93E82210F2
:1035480001914AEA090949EA07094FEA0848009F30
:103558006069A1692468D268DB6848EA06263E43A8
:103568004FEA0C4C019F4CEA052549EA40203D43AF
:10357800102C40EA413046EA026245EA03630ED065
:10358800094C2060A260E36003B0BDE8F08F012021
:103598005AE701204CE701203EE7012030E70349C4
:1035A80008608A60CB60EFE7800000A0600000A0A0
:1035B800C16910B4FC230022102442608260C260FA
:1035C80002614261826104600B60C2695360C26932
:1035D8009360C269D360026A1360026A5360026A28
:1035E8009360026AD36010BC704700BF102810B502
:1035F8000C4618D0B0F5807250425041FCF7CAFD15
:10360800012C8CBF00200120FCF7C4FD2CB1114B0C
:103618001A6842F004021A6010BD0E4A0E4B116877
:103628000B40136010BD0120FCF7B4FD012C8CBFCA
:1036380000200120FCF7AEFD2CB1084B1A6842F0BF
:1036480004021A6010BD054A034B11680B40136051
:1036580010BD00BF800000A0FBFF0F00600000A0AD
:10366800102810B50C4618D0B0F580714842484172
:10367800FCF790FD012C8CBF00200120FCF78AFD8F
:103688002CB1114B1A6842F040021A6010BD0E4A64
:103698000E4B11680B40136010BD0120FCF77AFD3A
:1036A800012C8CBF00200120FCF774FD2CB1084BC5
:1036B8001A6842F040021A6010BD054A034B1168AF
:1036C8000B40136010BD00BF800000A0BFFF0F00BB
:1036D800600000A010280CBF014B024B58697047CE
:1036E800600000A0800000A0054B182119604FF071
:1036F800FC32002159609A60DA601A61704700BF95
:10370800A00000A070B504460068002800F09F8063
:10371800851E68426841FCF73DFD6068FF288CBF44
:1037280000200120FCF736FDA068FF288CBF002090
:103738000120FCF72FFDE3681868FF288CBF0020E4
:103748000120FCF727FDE3685868FF288CBF00209C
:103758000120FCF71FFDE3689868FF288CBF002054
:103768000120FCF717FDE368D868FF288CBF00200C
:103778000120FCF70FFD23691868FF288CBF002083
:103788000120FCF707FD23695868FF288CBF00203B
:103798000120FCF7FFFC23699868FF288CBF0020F4
:1037A8000120FCF7F7FC2369D868FF288CBF0020AC
:1037B8000120FCF7EFFC63691868FF288CBF002024
:1037C8000120FCF7E7FC63695868FF288CBF0020DC
:1037D8000120FCF7DFFC63699868FF288CBF002094
:1037E8000120FCF7D7FC6369D868FF288CBF00204C
:1037F8000120FCF7CFFC94E8070040F01000154BBF
:1038080040EA412141EA42321A60E26892E86100E6
:10381800D168320442EA0522024342EA01629A6010
:10382800226992E86100D168320442EA0522024323
:1038380042EA0162DA60626992E83100D1682A04DA
:1038480042EA0422024342EA01621A6170BD012081
:1038580061E700BFA00000A0C168FC23002202604D
:10386800426082600B60C2685360C2689360C2683D
:10387800D360026913600269536002699360026948
:10388800D360426913604269536042699360426938
:10389800D3607047012810B504468CBF0020012072
:1038A800FCF778FC2CB9064A064B11680B401360EC
:1038B80010BD034B1A6842F004021A6010BD00BF25
:1038C800A00000A0FBFF0F00102870B504460D46AD
:1038D800164632D0B0F5807F2FD0B0F5805EDEF18D
:1038E800000050EB0E00FCF755FC35F0380316D1FC
:1038F800281C18BF0120FCF74DFC012E8CBF0020AE
:103908000120FCF747FC66B1102C1ED0B4F5807F6F
:103918000CBF104B104B5A6815435D6070BD0020FA
:10392800E9E7102C0BD0B4F5807F0CBF094B0A4B8C
:103938005A6822EA05055D6070BD0120D3E7074B90
:103948005A6822EA05055D6070BD044B5A68154344
:103958005D6070BD800000A0A00000A0600000A015
:10396800102838B504460D4622D0B0F5807F1FD008
:10397800B0F5805358425841FCF70CFC6B1E012BE4
:103988001CD9042D1AD0B5F1400CDCF1000050EB25
:103998000C00FCF7FFFB102C15D0B4F5807F0CBF92
:1039A8000A4B0B4B5B682B420CBF0020012038BD33
:1039B8000120FCF7EFFB6B1E012BE2D80120FCF77E
:1039C800E9FB102CE9D1034B5B68ECE7800000A011
:1039D800A00000A0600000A0102838B504460D46DD
:1039E80027D0B0F5807F24D0B0F5805250425041A6
:1039F800FCF7D0FB35F0070310D1281C18BF0120B5
:103A0800FCF7C8FB102C0ED0B4F5807F0CBF0A4B16
:103A18000A4B5A6822EA05055D6038BD0020FCF7AC
:103A2800B9FB102CF0D1064B5A6822EA05055D60F7
:103A380038BD0120DCE700BF800000A0A00000A086
:103A4800600000A0102838B505460C4625D0B0F512
:103A5800807F22D0B0F5805EDEF1000050EB0E00D2
:103A6800FCF798FB082C1DD0102C1BD0B4F12001BA
:103A780048424841FCF78EFB102D18D0B5F5807FE1
:103A88000CBF0C4B0C4B5B6813EA040004D013EA20
:103A9800D4040CBF0020012038BD0120FCF77AFBBC
:103AA800082CE1D10120FCF775FB102DE6D1034B62
:103AB8005B68E9E7800000A0A00000A0600000A00B
:103AC800102838B504460D4629D0B0F5807F26D099
:103AD800B0F5805CDCF1000050EB0C00FCF75AFB01
:103AE80035F0380310D1281C18BF0120FCF752FB11
:103AF800102C0ED0B4F5807F0CBF0A4B0A4B5A68C5
:103B080022EAD5055D6038BD0020FCF743FB102C88
:103B1800F0D1064B5A6822EAD5055D6038BD012010
:103B2800DCE700BF800000A0A00000A0600000A0AB
:103B38004E4B984210B532D003F5806398423BD083
:103B480003F58063984244D003F5806398424DD0D2
:103B580003F58063984215D003F5806398425ED0E0
:103B680003F58063984267D003F58063984270D06C
:103B78003F4C031B5C425C412046FCF70BFB002CCE
:103B880041D110BD0120FCF705FB1020012101F0F7
:103B980009F810200021BDE8104001F003B8012009
:103BA800FCF7F8FA0120014600F0FCFF0120002193
:103BB800BDE8104000F0F6BF0120FCF7EBFA022048
:103BC800012100F0EFFF02200021BDE8104000F0C5
:103BD800E9BF0120FCF7DEFA0420012100F0E2FF32
:103BE80004200021BDE8104000F0DCBF0120FCF7F4
:103BF800D1FA0820012100F0D5FF08200021BDE8F6
:103C0800104000F0CFBF01214FF4807000F0CAFFD0
:103C18004FF480700021BDE8104000F0C3BF0120C0
:103C2800FCF7B8FA2020012100F0BCFF2020002179
:103C3800BDE8104000F0B6BF0120FCF7ABFA402009
:103C4800012100F0AFFF40200021BDE8104000F046
:103C5800A9BF0120FCF79EFA8020012100F0A2FFF5
:103C680080200021BDE8104000F09CBF0000024009
:103C7800002002402DE9F84F4A4B984206460F466D
:103C880020D003F5806398421CD003F580639842E6
:103C980018D003F58063984214D003F580639842E6
:103CA80010D003F5806398420CD003F580639842E6
:103CB80008D003F58063984204D03B48321A50423A
:103CC800504100E00120FCF765FA3868003018BF61
:103CD8000120FCF75FFA387903288CBF0020012007
:103CE800FCF758FAF87902288CBF0020012000253B
:103CF800FCF750FA2C464FF001094FF0030B03E094
:103D080001340235102C26D03A6809FA04F303EA84
:103D180002089845F4D133680BFA05FA6FEA0A0AE3
:103D28000AEA030333603B79326803FA05F3134365
:103D380033603B79013B012B0FD9F3680AEA03038F
:103D4800F360FB79F26803FA05F301341343023593
:103D5800102CF360D8D1BDE8F88F787903288CBF90
:103D680000200120FCF716FAB3680AEA0303B360DF
:103D78007B79B26803FA05F31343B360B879012875
:103D88008CBF00200120FCF705FA736823EA0803BA
:103D98007360BB79726803FA04F39BB213437360D0
:103DA800CBE700BF000002400020024000234FF68E
:103DB800FF720260037143718371C371704700BF62
:103DC80030B583B04FF4803301931E4B98420446BC
:103DD8000D4620D003F5806398421CD003F580631C
:103DE800984218D003F58063984214D003F5806395
:103DF800984210D003F5806398420CD003F5806395
:103E0800984208D003F58063984204D00E48211ADE
:103E18004842484100E00120FCF7BCF9281C18BFC3
:103E28000120FCF7B7F9019B2B430193019BE36148
:103E3800E561019BE361E3690193E369019303B0E1
:103E480030BD00BF000002400020024038B5324BB0
:103E5800984204460D4630D003F5806398422CD032
:103E680003F58063984228D003F58063984224D0F4
:103E780003F58063984220D003F5806398421CD0F4
:103E880003F58063984218D003F58063984214D0F4
:103E98002248B4EB000CDCF1000050EB0C00FCF7FE
:103EA80079F96B1E012B0ED80120FCF773F92369F1
:103EB8001D420CBF0020012038BD0120FCF76AF923
:103EC8006B1E012BF0D9042DEED0082DECD0102D4F
:103ED800EAD0202DE8D0402DE6D0802DE4D0B5F5ED
:103EE800807FE1D0B5F5007FDED0B5F5806FDBD0FF
:103EF800B5F5006FD8D0B5F5805FD5D0B5F5005FC2
:103F0800D2D0B5F5804FCFD0B5F5004EDEF1000028
:103F180050EB0E00C9E700BF00000240002002403D
:103F2800154B984210B5044620D003F5806398429B
:103F38001CD003F58063984218D003F5806398423B
:103F480014D003F58063984210D003F5806398423B
:103F58000CD003F58063984208D003F5806398423B
:103F680004D00648231A5842584100E00120FCF7C3
:103F780011F9206980B210BD000002400020024003
:103F880038B52F4B984204460D462DD003F5806373
:103F9800984229D003F58063984225D003F58063C1
:103FA800984221D003F5806398421DD003F58063C1
:103FB800984219D003F58063984215D003F58063C1
:103FC800984211D01F48211A48424841FCF7E2F8AC
:103FD8006B1E012B0ED80120FCF7DCF863691D422B
:103FE8000CBF0020012038BD0120FCF7D3F86B1E60
:103FF800012BF0D9042DEED0082DECD0102DEAD0ED
:10400800202DE8D0402DE6D0802DE4D0B5F5807F76
:10401800E1D0B5F5007FDED0B5F5806FDBD0B5F522
:10402800006FD8D0B5F5805FD5D0B5F5005FD2D098
:10403800B5F5804FCFD0B5F5004250425041CBE79F
:104048000000024000200240174B984210B5044679
:1040580023D003F5806398421FD003F5806398420C
:104068001BD003F58063984217D003F5806398420C
:1040780013D003F5806398420FD003F5806398420C
:104088000BD003F58063984207D00848B4EB000EC4
:10409800DEF1000050EB0E0000E00120FCF77AF89A
:1040A800606980B210BD00BF0000024000200240DD
:1040B80038B5194B984204460D4623D003F5806362
:1040C80098421FD003F5806398421BD003F58063A4
:1040D800984217D003F58063984213D003F58063A4
:1040E80098420FD003F5806398420BD003F58063A4
:1040F800984207D00948B4EB000CDCF1000050EB03
:104108000C0000E00120FCF745F8281C18BF01202E
:10411800FCF740F8258338BD00000240002002402B
:1041280038B5184B984204460D4620D003F58063F5
:1041380098421CD003F58063984218D003F5806339
:10414800984214D003F58063984210D003F5806339
:1041580098420CD003F58063984208D003F5806339
:10416800984204D00848231A5842584100E00120D8
:10417800FCF710F8281C18BF0120FCF70BF8658322
:1041880038BD00BF0000024000200240324B984278
:1041980070B504460D46164630D003F58063984244
:1041A8002CD003F58063984228D003F580639842A9
:1041B80024D003F58063984220D003F580639842A9
:1041C8001CD003F58063984218D003F580639842A9
:1041D80014D02248211A48424841FBF7DBFF6B1EE6
:1041E800012B11D80120FBF7D5FF012E8CBF002031
:1041F8000120FBF7CFFF6EBB658370BD0120FBF785
:10420800C9FF6B1E012BEDD9042DEBD0082DE9D089
:10421800102DE7D0202DE5D0402DE3D0802DE1D022
:10422800B5F5807FDED0B5F5007FDBD0B5F5806FC2
:10423800D8D0B5F5006FD5D0B5F5805FD2D0B5F53B
:10424800005FCFD0B5F5804FCCD0B5F500425042D5
:104258005041C8E7258370BD00000240002002409D
:1042680038B5174B984204460D4623D003F58063B2
:1042780098421FD003F5806398421BD003F58063F2
:10428800984217D003F58063984213D003F58063F2
:1042980098420FD003F5806398420BD003F58063F2
:1042A800984207D00748B4EB000EDEF1000050EB4F
:1042B8000E0000E00120FBF76DFF656138BD00BF0F
:1042C800000002400020024038B5184B98420446CE
:1042D8000D4623D003F5806398421FD003F5806311
:1042E80098421BD003F58063984217D003F580638A
:1042F800984213D003F5806398420FD003F580638A
:1043080098420BD003F58063984207D00848B4EB75
:10431800000CDCF1000050EB0C0000E00120FBF782
:1043280039FF63695D40656138BD00BF0000024028
:1043380000200240354B984270B504460E4615469B
:1043480020D003F5806398421CD003F5806398421F
:1043580018D003F58063984214D003F5806398421F
:1043680010D003F5806398420CD003F5806398421F
:1043780008D003F58063984204D02548221A504299
:10438800504100E00120FBF705FF0F2E8CBF0020F5
:104398000120FBF7FFFEF5B1092D1CD0012D33D00C
:1043A800022D18D0032D16D0042D14D0052D12D0AF
:1043B800062D10D0072D0ED0082D0CD00A2D0AD0AE
:1043C8000B2D08D00C2D06D00D2D04D0B5F10F0300
:1043D8005842584100E00120FBF7DCFEF30808339F
:1043E80006F0070654F82310B6000F2202FA06F268
:1043F80021EA020244F8232054F8232005FA06F69D
:10440800164344F8236070BD2846E5E700000240E3
:10441800002002400A4B1968002241F0010119608E
:104428009A60196821F0847121F480311960054976
:104438005960196821F480211960DA60704700BF5B
:104448000038024010300024012810B5044609D96C
:10445800431F58425841FBF79DFE034B00221A7038
:104468001C7010BD0120F6E70238024010B582B07A
:1044780000230E4C01930120FBF78CFE23689A035E
:104488000FD4019B01330193019BB3F5A06FF2D1C7
:104498000120FBF77FFE054B1868C0F3404002B0CF
:1044A80010BD019B01330193019BF1E700380240E5
:1044B8001F2810B504468CBF00200120FBF76AFEB8
:1044C800034B1A6822F0F80242EAC4041C6010BDCB
:1044D80000380240012810B504468CBF0020012096
:1044E800FBF758FE014B1C6010BD00BF000047429F
:1044F800012810B5044611D9011F48424841FBF76D
:1045080049FE074B0022012C1A701A7004D0042CA3
:1045180001D105221A7010BD1C7010BD0120EEE7F4
:1045280070380240012810B504468CBF00200120D5
:10453800FBF730FE014B1C6010BD00BF800E4742E8
:104548002DE9F041069E0546884617461C46002878
:1045580039D0B0F5800CDCF1000050EB0C00FBF713
:1045680019FEB8F13F0F8CBF00200120FBF712FEA7
:10457800A7F1C000F0288CBF00200120FBF70AFE3D
:10458800022C22D0042C20D0062C1ED0B4F1080E08
:10459800DEF1000050EB0E00FBF7FCFD301F0B288E
:1045A80048EA05058CBF0020012045EA8717640802
:1045B800FBF7F0FD47EA0666013C054B46EA044670
:1045C8005E60BDE8F0810120C9E70120E4E700BF93
:1045D80000380240012810B504468CBF0020012095
:1045E800FBF7D8FD014B1C6010BD00BF60004742BF
:1045F80038B50546C038F0280C468CBF002001208D
:10460800FBF7C8FDA01E05288CBF00200120FBF782
:10461800C1FDAD01024B45EA0474C3F8844038BDBE
:1046280000380240012810B504468CBF0020012044
:10463800FBF7B0FD014B1C6010BD00BF680047428E
:10464800012810B504468CBF00200120FBF7A2FD0D
:10465800014B1C6010BD00BF4C00474238B50546F1
:104668000C46B8B1B0F5001F14D0B0F5800F11D0CA
:10467800B0F5C00250425041FBF78CFD7CB90120D7
:10468800FBF788FD0D4B9A6822F0EC6215432C432A
:104698009C6038BD0120FBF77DFD002CEFD0B4F104
:1046A800806FECD0B4F1A06FE9D0B4F1C06FE6D060
:1046B800B4F1E06358425841E2E700BF00380240D5
:1046C80038B505460C46C8B1B0F1804F16D0B0F1E8
:1046D800004F13D0B0F1404EDEF1000050EB0E0059
:1046E800FBF758FD7CB90120FBF754FD0D4B9A6888
:1046F80022F0784215432C439C6038BD0120FBF71B
:1047080049FD002CEFD0B4F1005FECD0B4F1205F8C
:10471800E9D0B4F1405FE6D0B4F160514842484175
:10472800E2E700BF00380240022810B504468CBFFB
:1047380000200120FBF72EFD034B9A6822F00302AC
:1047480014439C6010BD00BF00380240024B9868BB
:1047580000F00C00704700BF0038024010B5044656
:10476800A0B1802812D0902810D0A0280ED0B02850
:104778000CD0C0280AD0D02808D0E02806D0B0F144
:10478800F00CDCF1000050EB0C0000E00120FBF71E
:1047980001FD034B9A6822F0F00214439C6010BD9F
:1047A8000038024010B5044668B1B0F5805F0AD001
:1047B800B0F5A05F07D0B0F5C05F04D0B0F5E05306
:1047C8005842584100E00120FBF7E4FC034B9A688B
:1047D80022F4E05214439C6010BD00BF0038024030
:1047E80010B5044668B1B0F5805F0AD0B0F5A05F97
:1047F80007D0B0F5C05F04D0B0F5E0525042504148
:1048080000E00120FBF7C6FC034B9A6822F46042E3
:1048180042EAC4049C6010BD0038024010B41F4A2C
:10482800936803F00C03042B1CD0082B1DD01C4BE1
:1048380003601A491B4A8C68C4F30314145D23FAF5
:1048480004F343608C68C4F38224145D23FA04F4EF
:1048580084608968C1F34231525C23FA02F3C36071
:1048680010BC7047104B0360E3E754685168526806
:1048780064024CBF0C4B0A4B01F03F01C2F3881293
:10488800B3FBF1F303FB02F3044A5268C2F301429B
:1048980001325200B3FBF2F30360CAE7003802406A
:1048A8000024F4002800002040787D01B0F5807FC6
:1048B80010B5044600F09C80B0F5007F00F09880A9
:1048C8004D4B984200F0868003F58033984200F003
:1048D800818003F5803398427CD003F58033984279
:1048E80078D003F58033984274D003F5803398422A
:1048F80070D003F5803398426CD003F5803398422A
:1049080068D003F58033984264D003F58033984229
:1049180060D003F5803398425CD003F58033984229
:1049280058D003F58033984254D003F58033984229
:1049380050D003F5803398424CD003F58033984229
:1049480048D003F58033984244D003F58033984229
:1049580040D003F5803398423CD003F58033984229
:1049680038D003F58033984234D003F58033984229
:1049780030D003F5803398422CD003F58033984229
:1049880028D003F58033984224D003F58033984229
:1049980020D003F5803398421CD003F58033984229
:1049A80018D003F58033984214D01448B4EB000EA5
:1049B800DEF1000050EB0E00FBF7ECFB04F4407353
:1049C800B3F5407F09D00E4B24051A6F240D14430C
:1049D8001C6710BD0120FBF7DDFB094B996824F02B
:1049E800704221F4F81122F440720A439A60EAE70F
:1049F8000120FBF7CFFBE6E70003020000031F00DE
:104A080000380240012810B504468CBF0020012060
:104A1800FBF7C0FB014B1C6010BD00BF3C0E4742BA
:104A2800012810B504468CBF00200120FBF7B2FB1B
:104A3800014B1C6010BD00BF400E4742012810B555
:104A480004468CBF00200120FBF7A4FB014B1C602F
:104A580010BD00BF5C01474238B50E4B0340044609
:104A68000D468BB9003018BF0120FBF793FB012DD1
:104A78008CBF00200120FBF78DFB074B1A6B2DB96B
:104A880022EA04041C6338BD0020EEE714431C63CB
:104A980038BD00BF00EE8B810038024038B530F0D9
:104AA800F10304460D4611D1003018BF0120FBF771
:104AB80071FB012D8CBF00200120FBF76BFB064B1F
:104AC8005A6B2DB922EA04045C6338BD0020EEE776
:104AD80014435C6338BD00BF0038024038B530F07D
:104AE800010304460D4611D1003018BF0120FBF721
:104AF80051FB012D8CBF00200120FBF74BFB064B1F
:104B08009A6B2DB922EA04049C6338BD0020EEE7B5
:104B180014439C6338BD00BF0038024038B50E4BC3
:104B2800034004460D468BB9003018BF0120FBF73F
:104B380031FB012D8CBF00200120FBF72BFB074B1D
:104B48001A6C2DB922EA04041C6438BD0020EEE773
:104B580014431C6438BD00BF003601C90038024048
:104B680038B50E4B034004460D468BB9003018BFCC
:104B78000120FBF70FFB012D8CBF00200120FBF764
:104B880009FB074B5A6C2DB922EA04045C6438BD52
:104B98000020EEE714435C6438BD00BFCCA0F8FFEA
:104BA8000038024038B50E4B034004460D468BB919
:104BB800003018BF0120FBF7EDFA012D8CBF002053
:104BC8000120FBF7E7FA074B1A692DB922EA04041A
:104BD8001C6138BD0020EEE714431C6138BD00BFDE
:104BE80000EE9FDD0038024038B530F0F10304468E
:104BF8000D4611D1003018BF0120FBF7CBFA012D6B
:104C08008CBF00200120FBF7C5FA064B5A692DB965
:104C180022EA04045C6138BD0020EEE714435C61BD
:104C280038BD00BF0038024038B530F001030446F3
:104C38000D4611D1003018BF0120FBF7ABFA012D4A
:104C48008CBF00200120FBF7A5FA064B9A692DB905
:104C580022EA04049C6138BD0020EEE714439C61FD
:104C680038BD00BF0038024038B50E4B034004463B
:104C78000D468BB9003018BF0120FBF78BFA012DC8
:104C88008CBF00200120FBF785FA074B1A6A2DB963
:104C980022EA04041C6238BD0020EEE714431C62BB
:104CA80038BD00BF003601C90038024038B50E4B88
:104CB800034004460D468BB9003018BF0120FBF7AE
:104CC80069FA012D8CBF00200120FBF763FA074B1E
:104CD8005A6A2DB922EA04045C6238BD0020EEE766
:104CE80014435C6238BD00BFCCA6F8FF0038024010
:104CF80038B50E4B034004460D468BB9003018BF3B
:104D08000120FBF747FA012D8CBF00200120FBF79B
:104D180041FA074B1A6D2DB922EA04041C6538BD07
:104D28000020EEE714431C6538BD00BF006E988173
:104D38000038024038B530F0F10304460D4611D171
:104D4800003018BF0120FBF725FA012D8CBF002089
:104D58000120FBF71FFA064B5A6D2DB922EA04040D
:104D68005C6538BD0020EEE714435C6538BD00BFC4
:104D78000038024038B530F0010304460D4611D121
:104D8800003018BF0120FBF705FA012D8CBF002069
:104D98000120FBF7FFF9064B9A6D2DB922EA0404AE
:104DA8009C6538BD0020EEE714439C6538BD00BF04
:104DB8000038024038B50E4B034004460D468BB907
:104DC800003018BF0120FBF7E5F9012D8CBF00204A
:104DD8000120FBF7DFF9074B1A6E2DB922EA04040C
:104DE8001C6638BD0020EEE714431C6638BD00BFC2
:104DF800003601C90038024038B50E4B034004465E
:104E08000D468BB9003018BF0120FBF7C3F9012DFF
:104E18008CBF00200120FBF7BDF9074B5A6E2DB956
:104E280022EA04045C6638BD0020EEE714435C66A1
:104E380038BD00BFCCA0F8FF0038024010F0C00F0A
:104E480038B504460D4611D1003018BF0120FBF7D4
:104E5800A1F9012D8CBF00200120FBF79BF9064B1F
:104E68001A782DB922EA04041C7038BD0020EEE738
:104E780014431C7038BD00BF0D380240212810B5FE
:104E880004462BD0312829D0392827D0412831D0C1
:104E9800612829D0792827D07A2825D07B2823D0C3
:104EA8007C2821D07D281FD07E281DD07F281BD0AC
:104EB800B0F13B0CDCF1000050EB0C00FBF76AF999
:104EC8006309012B0DD0022B17D00D4B586F04F03E
:104ED8001F0420FA04F000F0010010BD0120FBF7C8
:104EE80059F9074B1868F2E70120FBF753F9044B0F
:104EF800586FECE70120FBF74DF9014B186FE6E717
:104F080000380240024B5A6F42F080725A6770476D
:104F180000380240431E012B10B504460CD9042862
:104F28000AD0082808D0102806D0802804D0B0F16C
:104F380020035842584100E00120FBF72BF9034BAE
:104F4800DB681C420CBF0020012010BD0038024065
:104F580000F04003DBB210B504463BB9003018BF7F
:104F68000120FBF717F9024B1C7010BD0020F8E771
:104F78000E380240364984B00023CA2201934A629F
:104F880053224A620293CB68580618D44FF0FF3375
:104F9800CB6000E04AB9CA68029B01330293029BC6
:104FA800B3F5803F02F04002F4D1294BDB68590683
:104FB80005D40020264BFF225A6204B070472449CA
:104FC80000230B6042F201134B608B6803F0070368
:104FD8008B6000E04AB9CA68019B01330193019BC9
:104FE800B3F5803F02F00402F4D1194BDA68520796
:104FF800DFD59A684FF6FF7100229A60596115490A
:1050080019619A61DA611A62DA601A640392CA2233
:105018005A6253225A62DA6822F0A002DA6019460C
:1050280000E04AB9CA68039B01330393039BB3F5B5
:10503800003F02F02002F4D1054BD86810F02000A0
:1050480002D1FF225A62B5E7FF225A620120B1E776
:1050580000280040FF007F0010B504460068402883
:1050680082B04DD0D0F1010038BF0020FBF792F894
:1050780060687F288CBF00200120FBF78BF8A068B0
:10508800B0F5004F2CBF00200120FBF783F81D4925
:10509800CA234B6253234B6200230193CB685B0600
:1050A80018D44FF0FF33CB6000E04AB9CA68019BBF
:1050B80001330193019BB3F5803F02F04002F4D124
:1050C800104BD868C0F3801020B90E4BFF225A62EB
:1050D80002B010BD0B4B9A6822F040029A609968A2
:1050E80022680A439A60A2681A611A69616842EAEA
:1050F80001421A61DA6822F08002DA600120E4E7EE
:105108000120B3E70028004000217F22FF2380E828
:105118000E007047012810B504468CBF00200120FE
:10512800FBF738F82CB9054BCA225A6253225A6247
:1051380010BD024BFF225A6210BD00BF002800407C
:1051480082B000230D490193CB68580614D44FF060
:10515800FF33CB6000E04AB9CA68019B0133019371
:10516800019BB3F5803F02F04002F4D1034BD868AD
:10517800C0F3801002B070470120FBE70028004010
:10518800024BDA6822F08002DA607047002800409B
:1051980082B00F4900230193CA234B6253234B6209
:1051A800CB6823F0A003CB6000E04AB9CA68019B32
:1051B80001330193019BB3F5003F02F02002F4D1C3
:1051C800034BD868FF225A62C0F3401002B0704700
:1051D8000028004010B50128044682B08CBF00208A
:1051E8000120FAF7D7FF1B49CA234B6253234B62AE
:1051F80000230193CB685B0618D44FF0FF33CB60D4
:1052080000E04AB9CA68019B01330193019BB3F5D9
:10521800803F02F04002F4D10E4BD868C0F38010F2
:1052280020B90C4BFF225A6202B010BD5CB9094B81
:105238009A6822F010029A60064BDA6822F080021F
:10524800DA600120EDE7034B9A6842F010029A6099
:10525800F2E700BF00280040012810B504468CBFC3
:1052680000200120FAF796FF084BCA225A625322FF
:105278005A629A6834B902F0DF029A60034BFF223F
:105288005A6210BD42F020029A60F7E700280040F9
:1052980030B50128054683B08CBF002001200C469C
:1052A800FAF778FF834B9B68002D4AD113F040032F
:1052B800207840F0BA801728E3708CBF00200120C6
:1052C800FAF768FF60783B288CBF00200120FAF7C6
:1052D80061FFA0783B288CBF00200120FAF75AFF15
:1052E80023780025092B08D900220A3BDBB20132BA
:1052F800092BD2B2F9D81201D5B262782B431D041A
:10530800092A40F2D48000200A3AD2B20130092A90
:10531800C0B2F9D80101C9B2A3780A43110200202A
:10532800092B07D90A3BDBB20130092BC0B2F9D8E7
:105338000001C0B2E27845EA02420A43034313433C
:105348003AE013F040035BD12278E370130903EBD2
:10535800830302F00F0202EB4300C0B217288CBF90
:1053680000200120FAF716FF63781A0902EB82027F
:1053780003F00F0303EB4200C0B23B288CBF0020B0
:105388000120FAF707FFA3781A0902EB820203F05B
:105398000F0303EB4200C0B23B288CBF0020012062
:1053A800FAF7F8FE63782078A178E2781B0243EADE
:1053B80000430B4343EA02433E48CA224262532257
:1053C800426200220092C26852063AD44FF0FF327D
:1053D800C26000E049B9C168009A01320092009A9F
:1053E800B2F5803F01F04001F4D1324AD068C0F3F1
:1053F8008010002825D12F4BFF225A6203B030BD00
:1054080023781A0902EB820203F00F0303EB420030
:10541800C0B201380B288CBF00200120FAF7BAFE71
:10542800E078002835D101209CE701380B288CBF93
:1054380000200120FAF7AEFEE07800282ED10120E6
:105448003EE71C4903F07F3323F0FE430B60CB6833
:1054580023F08003CB6000230193CA234B625323BC
:105468004B62CB6823F0A003CB6000E04AB9CA685E
:10547800019B01330193019BB3F5003F02F0200229
:10548800F4D10C4BD86810F020000CD1FF225A62DE
:10549800B1E7B0F140014842484163E7B0F1400547
:1054A800684268410CE7FF225A620120A3E7002105
:1054B80032E700BF002800400023C3700370437028
:1054C800837070470128F8B505468CBF002001207D
:1054D8000C46FAF75FFE164B1B68C3F30541C3F38E
:1054E800062203F4800CCFB2D6B203F07F004FEA55
:1054F8001C4C27706670A07084F803C0BDB93F09C2
:105508003609000907EB870701F00F0106EB86064D
:1055180002F00F0200EB800003F00F0301EB4707D6
:1055280002EB460603EB400027706670A070F8BDDA
:1055380000280040014B986A5B68704700280040CB
:1055480030B50128044683B08CBF002001200D46E9
:10555800FAF720FE002C57D16B7803F01002D2B274
:105568001AB123F010030A336B70E87863288CBFF4
:1055780000200120FAF70EFE687801380B288CBF4E
:1055880000200120FAF706FEA87801381E288CBFF3
:1055980000200120FAF7FEFD2878013806288CBF84
:1055A80000200120FAF7F6FDEB780022092B07D935
:1055B8000A3BDBB20132092BD2B2F9D81201D2B2BE
:1055C800687813431B04092840F2AE8000220A3889
:1055D800C0B201320928D2B2F9D81201D1B2AA78E0
:1055E800084301020024092A07D90A3AD2B2013431
:1055F800092AE4B2F9D82401E4B2287843EA403011
:1056080008432243024340E0EB781A0902EB820286
:1056180003F00F0303EB4200C0B263288CBF0020E5
:105628000120FAF7B7FD6B781A0902EB820203F042
:105638000F0303EB4200C0B201380B288CBF0020D7
:105648000120FAF7A7FDAB781A0902EB820203F0F2
:105658000F0303EB4200C0B201381E288CBF0020A4
:105668000120FAF797FD2878013806288CBF00201A
:105678000120FAF78FFD6A78E878A9782B7812026A
:1056880042EA00420A4342EA43322848CA234362B4
:105698005323436200230093C3685B0618D44FF07A
:1056A800FF33C36000E049B9C168009B0133009330
:1056B800009BB3F5803F01F04001F4D11B4BD86843
:1056C800C0F3801020B9194BFF225A6203B030BDD5
:1056D800164922F07F4222F0C0024A60CB6823F0CC
:1056E8008003CB6000230193CA234B6253234B6290
:1056F800CB6823F0A003CB6000E04AB9CA68019BDD
:1057080001330193019BB3F5003F02F02002F4D16D
:10571800064BD86810F0200002D1FF225A62D2E767
:10572800FF225A620120CEE7002158E700280040F6
:1057380001230370837043700023C370704700BF58
:105748000128F8B505468CBF002001200C46FAF761
:1057580021FD154B5B68C3F30741C3F30422CEB2A6
:10576800D7B203F03F00C3F3423CE6706770A07005
:1057780084F800C0BDB93F093609BD00000906EB31
:10578800860601F00F01EF1902F00F0200EB80000E
:1057980003F00F0301EB460602EB470703EB40005B
:1057A800E6706770A070F8BD002800400128F8B5C1
:1057B80004460E468CBF002001201546FAF7EAFC85
:1057C800B6F5807F00F01381B6F5007CDCF10000AF
:1057D80050EB0C00FAF7DEFC6B6813F07F3F14BF48
:1057E80000200120FAF7D6FCA868002874D0B0F190
:1057F800804EDEF1000050EB0E00FAF7CBFC8E4B2A
:105808009B68002C6FD15F06287800F1E580172887
:10581800EC708CBF00200120FAF7BCFC68783B28AC
:105828008CBF00200120FAF7B5FCA8783B288CBF74
:1058380000200120FAF7AEFC287BAB680138002B6A
:1058480040F0D7801E288CBF00200120FAF7A2FC68
:105858002B780022092B07D90A3BDBB20132092B2E
:10586800D2B2F9D81201D2B2687813431B040022CD
:10587800092807D90A38C0B201320928D2B2F9D8A2
:105888001201D2B2AC78104301020022092C07D9C8
:105898000A3CE4B20132092CD2B2F9D81201D2B2D0
:1058A800EF78287B14433F040022092807D90A38D7
:1058B800C0B201320928D2B2F9D81201D2B2D5F851
:1058C80004C0AD684CEA05053D432B430B431C431C
:1058D800104344EA00605DE00120FAF75BFC564B98
:1058E8009B68002C8FD013F0400361D12A78EB70AD
:1058F800130903EB830302F00F0202EB4300C0B26B
:1059080017288CBF00200120FAF744FC6B781A098D
:1059180002EB820203F00F0303EB4200C0B23B2804
:105928008CBF00200120FAF735FCAB781A0902EB8E
:10593800820203F00F0303EB4200C0B23B288CBF86
:1059480000200120FAF726FCAB68002B58D12B7BEE
:105958001A0902EB820203F00F0303EB4200C0B204
:1059680001381E288CBF00200120FAF713FCD5F857
:1059780004C0A868AF782C786978EA782B7B4CEA61
:105988000000384340EA044040EA012040EA02406F
:1059980040EA0360284BCA225A625322B6F5807F38
:1059A8005A620CBFD8611862234BFF225A62F8BDB5
:1059B8002B781A0902EB820203F00F0303EB420073
:1059C800C0B201380B288CBF00200120FAF7E2FB97
:1059D800E87858BB012097E701380B288CBF0020D6
:1059E8000120FAF7D7FBE878D8B9012014E701209D
:1059F800F0E606288CBF00200120FAF7CBFB27E74A
:105A08002B7B1A0902EB820203F00F0303EB42001F
:105A1800C0B2013806288CBF00200120FAF7BAFB73
:105A2800A5E7B0F1400148424841F5E6B0F140022F
:105A38005042504168E700BF00280040002301227F
:105A48000360836002734360704700BF01282DE93B
:105A5800F84F05460E468CBF002001201446FAF781
:105A680099FBB6F5807F53D0B6F50078D8F10000E1
:105A780050EB0800FAF78EFB284B1B6AC3F305406E
:105A8800C3F3062103F4800BC3F305625FFA80F8C1
:105A98005FFA81FC03F07F074FEA1B4BD6B203F095
:105AA800804A03F0803984F8008084F801C0A77028
:105AB80084F803B02673C4F808A0C4F804902DBB7A
:105AC8004FEA18184FEA1C1C3F09360908EB8808EA
